{
  "contractName": "FileSystem",
  "abi": [
    {
      "anonymous": false,
      "inputs": [
        {
          "indexed": false,
          "internalType": "string",
          "name": "id",
          "type": "string"
        },
        {
          "indexed": false,
          "internalType": "string",
          "name": "name",
          "type": "string"
        },
        {
          "indexed": false,
          "internalType": "string",
          "name": "course",
          "type": "string"
        },
        {
          "indexed": false,
          "internalType": "string",
          "name": "issuer",
          "type": "string"
        },
        {
          "indexed": false,
          "internalType": "string",
          "name": "date",
          "type": "string"
        }
      ],
      "name": "data",
      "type": "event"
    },
    {
      "constant": true,
      "inputs": [
        {
          "internalType": "string",
          "name": "",
          "type": "string"
        }
      ],
      "name": "store",
      "outputs": [
        {
          "internalType": "string",
          "name": "name",
          "type": "string"
        },
        {
          "internalType": "string",
          "name": "course",
          "type": "string"
        },
        {
          "internalType": "string",
          "name": "issuer",
          "type": "string"
        },
        {
          "internalType": "string",
          "name": "date",
          "type": "string"
        }
      ],
      "payable": false,
      "stateMutability": "view",
      "type": "function"
    },
    {
      "constant": false,
      "inputs": [
        {
          "internalType": "string",
          "name": "id",
          "type": "string"
        },
        {
          "internalType": "string",
          "name": "name",
          "type": "string"
        },
        {
          "internalType": "string",
          "name": "course",
          "type": "string"
        },
        {
          "internalType": "string",
          "name": "issuer",
          "type": "string"
        },
        {
          "internalType": "string",
          "name": "date",
          "type": "string"
        }
      ],
      "name": "createCert",
      "outputs": [],
      "payable": false,
      "stateMutability": "nonpayable",
      "type": "function"
    },
    {
      "constant": true,
      "inputs": [
        {
          "internalType": "string",
          "name": "id",
          "type": "string"
        }
      ],
      "name": "fetchCert",
      "outputs": [
        {
          "components": [
            {
              "internalType": "string",
              "name": "name",
              "type": "string"
            },
            {
              "internalType": "string",
              "name": "course",
              "type": "string"
            },
            {
              "internalType": "string",
              "name": "issuer",
              "type": "string"
            },
            {
              "internalType": "string",
              "name": "date",
              "type": "string"
            }
          ],
          "internalType": "struct FileSystem.item",
          "name": "",
          "type": "tuple"
        }
      ],
      "payable": false,
      "stateMutability": "view",
      "type": "function"
    }
  ],
  "bytecode": "0x608060405234801561001057600080fd5b50610dcf806100206000396000f3fe608060405234801561001057600080fd5b50600436106100415760003560e01c8063131a0680146100465780633c087e0914610079578063c8df61c314610095575b600080fd5b610060600480360361005b919081019061089c565b6100c5565b6040516100709493929190610bee565b60405180910390f35b610093600480360361008e919081019061091e565b61036b565b005b6100af60048036036100aa91908101906108dd565b610467565b6040516100bc9190610c4f565b60405180910390f35b600081805160208101820180518482526020830160208501208183528095505050505050600091509050806000018054600181600116156101000203166002900480601f0160208091040260200160405190810160405280929190818152602001828054600181600116156101000203166002900480156101875780601f1061015c57610100808354040283529160200191610187565b820191906000526020600020905b81548152906001019060200180831161016a57829003601f168201915b505050505090806001018054600181600116156101000203166002900480601f0160208091040260200160405190810160405280929190818152602001828054600181600116156101000203166002900480156102255780601f106101fa57610100808354040283529160200191610225565b820191906000526020600020905b81548152906001019060200180831161020857829003601f168201915b505050505090806002018054600181600116156101000203166002900480601f0160208091040260200160405190810160405280929190818152602001828054600181600116156101000203166002900480156102c35780601f10610298576101008083540402835291602001916102c3565b820191906000526020600020905b8154815290600101906020018083116102a657829003601f168201915b505050505090806003018054600181600116156101000203166002900480601f0160208091040260200160405190810160405280929190818152602001828054600181600116156101000203166002900480156103615780601f1061033657610100808354040283529160200191610361565b820191906000526020600020905b81548152906001019060200180831161034457829003601f168201915b5050505050905084565b60405180608001604052808581526020018481526020018381526020018281525060008660405161039c9190610b61565b908152602001604051809103902060008201518160000190805190602001906103c6929190610727565b5060208201518160010190805190602001906103e3929190610727565b506040820151816002019080519060200190610400929190610727565b50606082015181600301908051906020019061041d929190610727565b509050507f8e42af07e64540426409b85241894b90c164ac2910a668e53acd0552e40b3b708585858585604051610458959493929190610b78565b60405180910390a15050505050565b61046f6107a7565b60008260405161047f9190610b61565b9081526020016040518091039020604051806080016040529081600082018054600181600116156101000203166002900480601f0160208091040260200160405190810160405280929190818152602001828054600181600116156101000203166002900480156105315780601f1061050657610100808354040283529160200191610531565b820191906000526020600020905b81548152906001019060200180831161051457829003601f168201915b50505050508152602001600182018054600181600116156101000203166002900480601f0160208091040260200160405190810160405280929190818152602001828054600181600116156101000203166002900480156105d35780601f106105a8576101008083540402835291602001916105d3565b820191906000526020600020905b8154815290600101906020018083116105b657829003601f168201915b50505050508152602001600282018054600181600116156101000203166002900480601f0160208091040260200160405190810160405280929190818152602001828054600181600116156101000203166002900480156106755780601f1061064a57610100808354040283529160200191610675565b820191906000526020600020905b81548152906001019060200180831161065857829003601f168201915b50505050508152602001600382018054600181600116156101000203166002900480601f0160208091040260200160405190810160405280929190818152602001828054600181600116156101000203166002900480156107175780601f106106ec57610100808354040283529160200191610717565b820191906000526020600020905b8154815290600101906020018083116106fa57829003601f168201915b5050505050815250509050919050565b828054600181600116156101000203166002900490600052602060002090601f016020900481019282601f1061076857805160ff1916838001178555610796565b82800160010185558215610796579182015b8281111561079557825182559160200191906001019061077a565b5b5090506107a391906107cf565b5090565b6040518060800160405280606081526020016060815260200160608152602001606081525090565b6107f191905b808211156107ed5760008160009055506001016107d5565b5090565b90565b600082601f83011261080557600080fd5b813561081861081382610c9e565b610c71565b9150808252602083016020830185838301111561083457600080fd5b61083f838284610d39565b50505092915050565b600082601f83011261085957600080fd5b813561086c61086782610cca565b610c71565b9150808252602083016020830185838301111561088857600080fd5b610893838284610d39565b50505092915050565b6000602082840312156108ae57600080fd5b600082013567ffffffffffffffff8111156108c857600080fd5b6108d4848285016107f4565b91505092915050565b6000602082840312156108ef57600080fd5b600082013567ffffffffffffffff81111561090957600080fd5b61091584828501610848565b91505092915050565b600080600080600060a0868803121561093657600080fd5b600086013567ffffffffffffffff81111561095057600080fd5b61095c88828901610848565b955050602086013567ffffffffffffffff81111561097957600080fd5b61098588828901610848565b945050604086013567ffffffffffffffff8111156109a257600080fd5b6109ae88828901610848565b935050606086013567ffffffffffffffff8111156109cb57600080fd5b6109d788828901610848565b925050608086013567ffffffffffffffff8111156109f457600080fd5b610a0088828901610848565b9150509295509295909350565b6000610a1882610d01565b610a228185610d1d565b9350610a32818560208601610d48565b610a3b81610d7b565b840191505092915050565b6000610a5182610d01565b610a5b8185610d2e565b9350610a6b818560208601610d48565b80840191505092915050565b6000610a8282610cf6565b610a8c8185610d0c565b9350610a9c818560208601610d48565b610aa581610d7b565b840191505092915050565b6000610abb82610cf6565b610ac58185610d1d565b9350610ad5818560208601610d48565b610ade81610d7b565b840191505092915050565b60006080830160008301518482036000860152610b068282610a77565b91505060208301518482036020860152610b208282610a77565b91505060408301518482036040860152610b3a8282610a77565b91505060608301518482036060860152610b548282610a77565b9150508091505092915050565b6000610b6d8284610a46565b915081905092915050565b600060a0820190508181036000830152610b928188610a0d565b90508181036020830152610ba68187610a0d565b90508181036040830152610bba8186610a0d565b90508181036060830152610bce8185610a0d565b90508181036080830152610be28184610a0d565b90509695505050505050565b60006080820190508181036000830152610c088187610ab0565b90508181036020830152610c1c8186610ab0565b90508181036040830152610c308185610ab0565b90508181036060830152610c448184610ab0565b905095945050505050565b60006020820190508181036000830152610c698184610ae9565b905092915050565b6000604051905081810181811067ffffffffffffffff82111715610c9457600080fd5b8060405250919050565b600067ffffffffffffffff821115610cb557600080fd5b601f19601f8301169050602081019050919050565b600067ffffffffffffffff821115610ce157600080fd5b601f19601f8301169050602081019050919050565b600081519050919050565b600081519050919050565b600082825260208201905092915050565b600082825260208201905092915050565b600081905092915050565b82818337600083830152505050565b60005b83811015610d66578082015181840152602081019050610d4b565b83811115610d75576000848401525b50505050565b6000601f19601f830116905091905056fea365627a7a7231582009b8794aa549a21ac38d92f8666326fbd0c592a22ca8e84f758dfd1e21b4d3136c6578706572696d656e74616cf564736f6c63430005100040",
  "source": "// SPDX-License-Identifier: MIT\npragma solidity >= 0.5.16;\npragma experimental ABIEncoderV2;\n\ncontract FileSystem {\n\n    struct item{\n        string name;\n        string course;\n        string issuer; \n        string date;\n    }\n\n    mapping(string => item) public store;\n\n    event data(string id, string name, string course, string issuer, string date);\n    function createCert(string memory id, string memory name, string memory course, string memory issuer, string memory date) public {\n        store[id] = item(name, course, issuer, date);\n        emit data(id, name, course, issuer, date);\n    }\n\n    function fetchCert(string memory id) public view returns(item memory) {\n        return store[id];\n    }\n}",
  "sourcePath": "/Users/gilbertzhuo/Desktop/Certificate Verification/contracts/FileSystem.sol",
  "compiler": {
    "name": "solc",
    "version": "0.5.16+commit.9c3226ce.Emscripten.clang"
  },
  "schemaVersion": "3.4.3",
  "updatedAt": "2021-09-07T04:56:50.113Z",
  "networkType": "ethereum",
  "devdoc": {
    "methods": {}
  },
  "userdoc": {
    "methods": {}
  }
}